{
  "_format": "hh-sol-artifact-1",
  "contractName": "Marketplace",
  "sourceName": "src/backend/contracts/Marketplace.sol",
  "abi": [
    {
      "inputs": [
        {
          "internalType": "uint256",
          "name": "_feePercent",
          "type": "uint256"
        }
      ],
      "stateMutability": "nonpayable",
      "type": "constructor"
    },
    {
      "anonymous": false,
      "inputs": [
        {
          "indexed": false,
          "internalType": "uint256",
          "name": "itemId",
          "type": "uint256"
        },
        {
          "indexed": true,
          "internalType": "address",
          "name": "nft",
          "type": "address"
        },
        {
          "indexed": false,
          "internalType": "uint256",
          "name": "_token_id",
          "type": "uint256"
        },
        {
          "indexed": false,
          "internalType": "uint256",
          "name": "price",
          "type": "uint256"
        },
        {
          "indexed": true,
          "internalType": "address",
          "name": "seller",
          "type": "address"
        },
        {
          "indexed": true,
          "internalType": "address",
          "name": "buyer",
          "type": "address"
        }
      ],
      "name": "Bought",
      "type": "event"
    },
    {
      "anonymous": false,
      "inputs": [
        {
          "indexed": false,
          "internalType": "uint256",
          "name": "itemId",
          "type": "uint256"
        },
        {
          "indexed": true,
          "internalType": "address",
          "name": "nft",
          "type": "address"
        },
        {
          "indexed": false,
          "internalType": "string",
          "name": "name",
          "type": "string"
        },
        {
          "indexed": false,
          "internalType": "uint256",
          "name": "_token_id",
          "type": "uint256"
        },
        {
          "indexed": false,
          "internalType": "uint256",
          "name": "price",
          "type": "uint256"
        },
        {
          "indexed": true,
          "internalType": "address",
          "name": "seller",
          "type": "address"
        },
        {
          "indexed": false,
          "internalType": "string",
          "name": "description",
          "type": "string"
        },
        {
          "indexed": true,
          "internalType": "string",
          "name": "documentHash",
          "type": "string"
        }
      ],
      "name": "Offered",
      "type": "event"
    },
    {
      "inputs": [],
      "name": "feeAccount",
      "outputs": [
        {
          "internalType": "address payable",
          "name": "",
          "type": "address"
        }
      ],
      "stateMutability": "view",
      "type": "function"
    },
    {
      "inputs": [],
      "name": "feePercent",
      "outputs": [
        {
          "internalType": "uint256",
          "name": "",
          "type": "uint256"
        }
      ],
      "stateMutability": "view",
      "type": "function"
    },
    {
      "inputs": [],
      "name": "getOwner",
      "outputs": [
        {
          "internalType": "address",
          "name": "",
          "type": "address"
        }
      ],
      "stateMutability": "view",
      "type": "function"
    },
    {
      "inputs": [
        {
          "internalType": "uint256",
          "name": "_itemId",
          "type": "uint256"
        }
      ],
      "name": "getTotalPrice",
      "outputs": [
        {
          "internalType": "uint256",
          "name": "",
          "type": "uint256"
        }
      ],
      "stateMutability": "view",
      "type": "function"
    },
    {
      "inputs": [
        {
          "internalType": "uint256",
          "name": "_itemId",
          "type": "uint256"
        }
      ],
      "name": "handleApprove",
      "outputs": [
        {
          "internalType": "uint256",
          "name": "",
          "type": "uint256"
        }
      ],
      "stateMutability": "nonpayable",
      "type": "function"
    },
    {
      "inputs": [],
      "name": "itemCount",
      "outputs": [
        {
          "internalType": "uint256",
          "name": "",
          "type": "uint256"
        }
      ],
      "stateMutability": "view",
      "type": "function"
    },
    {
      "inputs": [
        {
          "internalType": "uint256",
          "name": "_itemId",
          "type": "uint256"
        }
      ],
      "name": "purchaseItem",
      "outputs": [],
      "stateMutability": "payable",
      "type": "function"
    },
    {
      "inputs": [
        {
          "internalType": "uint256",
          "name": "",
          "type": "uint256"
        }
      ],
      "name": "saleItems",
      "outputs": [
        {
          "internalType": "uint256",
          "name": "itemId",
          "type": "uint256"
        },
        {
          "internalType": "contract IERC721",
          "name": "nft",
          "type": "address"
        },
        {
          "internalType": "string",
          "name": "name",
          "type": "string"
        },
        {
          "internalType": "uint256",
          "name": "_token_id",
          "type": "uint256"
        },
        {
          "internalType": "uint256",
          "name": "price",
          "type": "uint256"
        },
        {
          "internalType": "address payable",
          "name": "seller",
          "type": "address"
        },
        {
          "internalType": "bool",
          "name": "sold",
          "type": "bool"
        },
        {
          "internalType": "bool",
          "name": "approved",
          "type": "bool"
        },
        {
          "internalType": "string",
          "name": "location",
          "type": "string"
        },
        {
          "internalType": "string",
          "name": "phone",
          "type": "string"
        },
        {
          "internalType": "string",
          "name": "_address",
          "type": "string"
        },
        {
          "internalType": "string",
          "name": "image_url",
          "type": "string"
        }
      ],
      "stateMutability": "view",
      "type": "function"
    },
    {
      "inputs": [
        {
          "internalType": "contract IERC721",
          "name": "_nft",
          "type": "address"
        },
        {
          "internalType": "string",
          "name": "name",
          "type": "string"
        },
        {
          "internalType": "uint256",
          "name": "_token_id",
          "type": "uint256"
        },
        {
          "internalType": "uint256",
          "name": "_price",
          "type": "uint256"
        },
        {
          "internalType": "string",
          "name": "description",
          "type": "string"
        },
        {
          "internalType": "string",
          "name": "location",
          "type": "string"
        },
        {
          "internalType": "string",
          "name": "phone",
          "type": "string"
        },
        {
          "internalType": "string",
          "name": "_address",
          "type": "string"
        },
        {
          "internalType": "string",
          "name": "image_url",
          "type": "string"
        },
        {
          "internalType": "string",
          "name": "documentHash",
          "type": "string"
        }
      ],
      "name": "sellItem",
      "outputs": [],
      "stateMutability": "nonpayable",
      "type": "function"
    }
  ],
  "bytecode": "0x60c06040523480156200001157600080fd5b5060405162001c8038038062001c808339818101604052810190620000379190620000dd565b600160008190555033600160006101000a81548173ffffffffffffffffffffffffffffffffffffffff021916908373ffffffffffffffffffffffffffffffffffffffff1602179055503373ffffffffffffffffffffffffffffffffffffffff1660808173ffffffffffffffffffffffffffffffffffffffff1660601b815250508060a08181525050506200012d565b600081519050620000d78162000113565b92915050565b600060208284031215620000f057600080fd5b60006200010084828501620000c6565b91505092915050565b6000819050919050565b6200011e8162000109565b81146200012a57600080fd5b50565b60805160601c60a051611b1c620001646000396000818161034001526106f4015260008181610316015261091a0152611b1c6000f3fe6080604052600436106100865760003560e01c8063893d20e811610059578063893d20e8146101495780638abf209214610174578063ca7dd375146101bc578063d38ea5bf146101f9578063d85a85dd1461021557610086565b80631c7774971461008b57806365e17c9d146100c85780636bfb0d01146100f35780637fd6f15c1461011e575b600080fd5b34801561009757600080fd5b506100b260048036038101906100ad91906111a7565b61023e565b6040516100bf9190611458565b60405180910390f35b3480156100d457600080fd5b506100dd610314565b6040516100ea9190611366565b60405180910390f35b3480156100ff57600080fd5b50610108610338565b6040516101159190611458565b60405180910390f35b34801561012a57600080fd5b5061013361033e565b6040516101409190611458565b60405180910390f35b34801561015557600080fd5b5061015e610362565b60405161016b919061134b565b60405180910390f35b34801561018057600080fd5b5061019b600480360381019061019691906111a7565b61038c565b6040516101b39c9b9a99989796959493929190611473565b60405180910390f35b3480156101c857600080fd5b506101e360048036038101906101de91906111a7565b6106ee565b6040516101f09190611458565b60405180910390f35b610213600480360381019061020e91906111a7565b610751565b005b34801561022157600080fd5b5061023c60048036038101906102379190611024565b610b1f565b005b60008060036000848152602001908152602001600020905060008311801561026857506002548311155b6102a7576040517f08c379a000000000000000000000000000000000000000000000000000000000815260040161029e90611418565b60405180910390fd5b600115158160050160159054906101000a900460ff16151514156102ec5760008160050160156101000a81548160ff021916908315150217905550600091505061030f565b60018160050160156101000a81548160ff02191690831515021790555060019150505b919050565b7f000000000000000000000000000000000000000000000000000000000000000081565b60025481565b7f000000000000000000000000000000000000000000000000000000000000000081565b6000600160009054906101000a900473ffffffffffffffffffffffffffffffffffffffff16905090565b60036020528060005260406000206000915090508060000154908060010160009054906101000a900473ffffffffffffffffffffffffffffffffffffffff16908060020180546103db9061184c565b80601f01602080910402602001604051908101604052809291908181526020018280546104079061184c565b80156104545780601f1061042957610100808354040283529160200191610454565b820191906000526020600020905b81548152906001019060200180831161043757829003601f168201915b5050505050908060030154908060040154908060050160009054906101000a900473ffffffffffffffffffffffffffffffffffffffff16908060050160149054906101000a900460ff16908060050160159054906101000a900460ff16908060060180546104c19061184c565b80601f01602080910402602001604051908101604052809291908181526020018280546104ed9061184c565b801561053a5780601f1061050f5761010080835404028352916020019161053a565b820191906000526020600020905b81548152906001019060200180831161051d57829003601f168201915b50505050509080600701805461054f9061184c565b80601f016020809104026020016040519081016040528092919081815260200182805461057b9061184c565b80156105c85780601f1061059d576101008083540402835291602001916105c8565b820191906000526020600020905b8154815290600101906020018083116105ab57829003601f168201915b5050505050908060080180546105dd9061184c565b80601f01602080910402602001604051908101604052809291908181526020018280546106099061184c565b80156106565780601f1061062b57610100808354040283529160200191610656565b820191906000526020600020905b81548152906001019060200180831161063957829003601f168201915b50505050509080600901805461066b9061184c565b80601f01602080910402602001604051908101604052809291908181526020018280546106979061184c565b80156106e45780601f106106b9576101008083540402835291602001916106e4565b820191906000526020600020905b8154815290600101906020018083116106c757829003601f168201915b505050505090508c565b600060647f0000000000000000000000000000000000000000000000000000000000000000606461071f9190611665565b600360008581526020019081526020016000206004015461074091906116ec565b61074a91906116bb565b9050919050565b60026000541415610797576040517f08c379a000000000000000000000000000000000000000000000000000000000815260040161078e90611438565b60405180910390fd5b600260008190555060006107aa826106ee565b905060006003600084815260200190815260200160002090506000831180156107d557506002548311155b610814576040517f08c379a000000000000000000000000000000000000000000000000000000000815260040161080b90611418565b60405180910390fd5b81341015610857576040517f08c379a000000000000000000000000000000000000000000000000000000000815260040161084e906113f8565b60405180910390fd5b8060050160149054906101000a900460ff16156108a9576040517f08c379a00000000000000000000000000000000000000000000000000000000081526004016108a0906113b8565b60405180910390fd5b8060050160009054906101000a900473ffffffffffffffffffffffffffffffffffffffff1673ffffffffffffffffffffffffffffffffffffffff166108fc82600401549081150290604051600060405180830381858888f19350505050158015610917573d6000803e3d6000fd5b507f000000000000000000000000000000000000000000000000000000000000000073ffffffffffffffffffffffffffffffffffffffff166108fc8260040154846109629190611746565b9081150290604051600060405180830381858888f1935050505015801561098d573d6000803e3d6000fd5b5060018160050160146101000a81548160ff0219169083151502179055508060010160009054906101000a900473ffffffffffffffffffffffffffffffffffffffff1673ffffffffffffffffffffffffffffffffffffffff166323b872dd303384600301546040518463ffffffff1660e01b8152600401610a1093929190611381565b600060405180830381600087803b158015610a2a57600080fd5b505af1158015610a3e573d6000803e3d6000fd5b505050503373ffffffffffffffffffffffffffffffffffffffff168160050160009054906101000a900473ffffffffffffffffffffffffffffffffffffffff1673ffffffffffffffffffffffffffffffffffffffff168260010160009054906101000a900473ffffffffffffffffffffffffffffffffffffffff1673ffffffffffffffffffffffffffffffffffffffff167f8b4c9c8a607d67b321582dd8461041b1dc2ceeca70c8b7f37f8e02095cf2e76d8685600301548660040154604051610b0a939291906115b1565b60405180910390a45050600160008190555050565b60026000541415610b65576040517f08c379a0000000000000000000000000000000000000000000000000000000008152600401610b5c90611438565b60405180910390fd5b600260008190555060008711610bb0576040517f08c379a0000000000000000000000000000000000000000000000000000000008152600401610ba7906113d8565b60405180910390fd5b60026000815480929190610bc3906118af565b91905055508973ffffffffffffffffffffffffffffffffffffffff166323b872dd33308b6040518463ffffffff1660e01b8152600401610c0593929190611381565b600060405180830381600087803b158015610c1f57600080fd5b505af1158015610c33573d6000803e3d6000fd5b5050505060405180610180016040528060025481526020018b73ffffffffffffffffffffffffffffffffffffffff1681526020018a81526020018981526020018881526020013373ffffffffffffffffffffffffffffffffffffffff168152602001600015158152602001600015158152602001868152602001858152602001848152602001838152506003600060025481526020019081526020016000206000820151816000015560208201518160010160006101000a81548173ffffffffffffffffffffffffffffffffffffffff021916908373ffffffffffffffffffffffffffffffffffffffff1602179055506040820151816002019080519060200190610d3f929190610eef565b50606082015181600301556080820151816004015560a08201518160050160006101000a81548173ffffffffffffffffffffffffffffffffffffffff021916908373ffffffffffffffffffffffffffffffffffffffff16021790555060c08201518160050160146101000a81548160ff02191690831515021790555060e08201518160050160156101000a81548160ff021916908315150217905550610100820151816006019080519060200190610df8929190610eef565b50610120820151816007019080519060200190610e16929190610eef565b50610140820151816008019080519060200190610e34929190610eef565b50610160820151816009019080519060200190610e52929190610eef565b5090505080604051610e649190611334565b60405180910390203373ffffffffffffffffffffffffffffffffffffffff168b73ffffffffffffffffffffffffffffffffffffffff167f40f7bfa5dd4cd71a8c96c00f1609b9e0778c050d4eaae13085181a0e565b72e26002548d8d8d8d604051610ed3959493929190611550565b60405180910390a4600160008190555050505050505050505050565b828054610efb9061184c565b90600052602060002090601f016020900481019282610f1d5760008555610f64565b82601f10610f3657805160ff1916838001178555610f64565b82800160010185558215610f64579182015b82811115610f63578251825591602001919060010190610f48565b5b509050610f719190610f75565b5090565b5b80821115610f8e576000816000905550600101610f76565b5090565b6000610fa5610fa08461160d565b6115e8565b905082815260208101848484011115610fbd57600080fd5b610fc884828561180a565b509392505050565b600081359050610fdf81611ab8565b92915050565b600082601f830112610ff657600080fd5b8135611006848260208601610f92565b91505092915050565b60008135905061101e81611acf565b92915050565b6000806000806000806000806000806101408b8d03121561104457600080fd5b60006110528d828e01610fd0565b9a505060208b013567ffffffffffffffff81111561106f57600080fd5b61107b8d828e01610fe5565b995050604061108c8d828e0161100f565b985050606061109d8d828e0161100f565b97505060808b013567ffffffffffffffff8111156110ba57600080fd5b6110c68d828e01610fe5565b96505060a08b013567ffffffffffffffff8111156110e357600080fd5b6110ef8d828e01610fe5565b95505060c08b013567ffffffffffffffff81111561110c57600080fd5b6111188d828e01610fe5565b94505060e08b013567ffffffffffffffff81111561113557600080fd5b6111418d828e01610fe5565b9350506101008b013567ffffffffffffffff81111561115f57600080fd5b61116b8d828e01610fe5565b9250506101208b013567ffffffffffffffff81111561118957600080fd5b6111958d828e01610fe5565b9150509295989b9194979a5092959850565b6000602082840312156111b957600080fd5b60006111c78482850161100f565b91505092915050565b6111d98161178c565b82525050565b6111e88161177a565b82525050565b6111f78161179e565b82525050565b611206816117e6565b82525050565b60006112178261163e565b6112218185611649565b9350611231818560208601611819565b61123a816119b4565b840191505092915050565b60006112508261163e565b61125a818561165a565b935061126a818560208601611819565b80840191505092915050565b6000611283601183611649565b915061128e826119c5565b602082019050919050565b60006112a6601f83611649565b91506112b1826119ee565b602082019050919050565b60006112c9603383611649565b91506112d482611a17565b604082019050919050565b60006112ec601283611649565b91506112f782611a66565b602082019050919050565b600061130f601f83611649565b915061131a82611a8f565b602082019050919050565b61132e816117dc565b82525050565b60006113408284611245565b915081905092915050565b600060208201905061136060008301846111df565b92915050565b600060208201905061137b60008301846111d0565b92915050565b600060608201905061139660008301866111df565b6113a360208301856111df565b6113b06040830184611325565b949350505050565b600060208201905081810360008301526113d181611276565b9050919050565b600060208201905081810360008301526113f181611299565b9050919050565b60006020820190508181036000830152611411816112bc565b9050919050565b60006020820190508181036000830152611431816112df565b9050919050565b6000602082019050818103600083015261145181611302565b9050919050565b600060208201905061146d6000830184611325565b92915050565b600061018082019050611489600083018f611325565b611496602083018e6111fd565b81810360408301526114a8818d61120c565b90506114b7606083018c611325565b6114c4608083018b611325565b6114d160a083018a6111d0565b6114de60c08301896111ee565b6114eb60e08301886111ee565b8181036101008301526114fe818761120c565b9050818103610120830152611513818661120c565b9050818103610140830152611528818561120c565b905081810361016083015261153d818461120c565b90509d9c50505050505050505050505050565b600060a0820190506115656000830188611325565b8181036020830152611577818761120c565b90506115866040830186611325565b6115936060830185611325565b81810360808301526115a5818461120c565b90509695505050505050565b60006060820190506115c66000830186611325565b6115d36020830185611325565b6115e06040830184611325565b949350505050565b60006115f2611603565b90506115fe828261187e565b919050565b6000604051905090565b600067ffffffffffffffff82111561162857611627611985565b5b611631826119b4565b9050602081019050919050565b600081519050919050565b600082825260208201905092915050565b600081905092915050565b6000611670826117dc565b915061167b836117dc565b9250827fffffffffffffffffffffffffffffffffffffffffffffffffffffffffffffffff038211156116b0576116af6118f8565b5b828201905092915050565b60006116c6826117dc565b91506116d1836117dc565b9250826116e1576116e0611927565b5b828204905092915050565b60006116f7826117dc565b9150611702836117dc565b9250817fffffffffffffffffffffffffffffffffffffffffffffffffffffffffffffffff048311821515161561173b5761173a6118f8565b5b828202905092915050565b6000611751826117dc565b915061175c836117dc565b92508282101561176f5761176e6118f8565b5b828203905092915050565b6000611785826117bc565b9050919050565b6000611797826117bc565b9050919050565b60008115159050919050565b60006117b58261177a565b9050919050565b600073ffffffffffffffffffffffffffffffffffffffff82169050919050565b6000819050919050565b60006117f1826117f8565b9050919050565b6000611803826117bc565b9050919050565b82818337600083830152505050565b60005b8381101561183757808201518184015260208101905061181c565b83811115611846576000848401525b50505050565b6000600282049050600182168061186457607f821691505b6020821081141561187857611877611956565b5b50919050565b611887826119b4565b810181811067ffffffffffffffff821117156118a6576118a5611985565b5b80604052505050565b60006118ba826117dc565b91507fffffffffffffffffffffffffffffffffffffffffffffffffffffffffffffffff8214156118ed576118ec6118f8565b5b600182019050919050565b7f4e487b7100000000000000000000000000000000000000000000000000000000600052601160045260246000fd5b7f4e487b7100000000000000000000000000000000000000000000000000000000600052601260045260246000fd5b7f4e487b7100000000000000000000000000000000000000000000000000000000600052602260045260246000fd5b7f4e487b7100000000000000000000000000000000000000000000000000000000600052604160045260246000fd5b6000601f19601f8301169050919050565b7f6974656d20616c726561647920736f6c64000000000000000000000000000000600082015250565b7f5072696365206d7573742062652067726561746572207468616e207a65726f00600082015250565b7f6e6f7420656e6f75676820657468657220746f20636f766572206974656d207060008201527f7269636520616e64206d61726b65742066656500000000000000000000000000602082015250565b7f4974656d20646f65736e27742065786973740000000000000000000000000000600082015250565b7f5265656e7472616e637947756172643a207265656e7472616e742063616c6c00600082015250565b611ac1816117aa565b8114611acc57600080fd5b50565b611ad8816117dc565b8114611ae357600080fd5b5056fea264697066735822122005efb66cd302b94bdd93c0301d7d887d659da0e5b00702a7a9e1a04b0fe1a1b564736f6c63430008040033",
  "linkReferences": {},
  "deployedLinkReferences": {}
}