{
  "_format": "hh-sol-artifact-1",
  "contractName": "Registeritems",
  "sourceName": "src/backend/contracts/Registeritems.sol",
  "abi": [
    {
      "inputs": [],
      "stateMutability": "payable",
      "type": "constructor"
    },
    {
      "anonymous": false,
      "inputs": [
        {
          "indexed": false,
          "internalType": "uint256",
          "name": "itemId",
          "type": "uint256"
        },
        {
          "indexed": true,
          "internalType": "address",
          "name": "nft",
          "type": "address"
        },
        {
          "indexed": false,
          "internalType": "string",
          "name": "name",
          "type": "string"
        },
        {
          "indexed": false,
          "internalType": "uint256",
          "name": "_token_id",
          "type": "uint256"
        },
        {
          "indexed": false,
          "internalType": "uint256",
          "name": "price",
          "type": "uint256"
        },
        {
          "indexed": true,
          "internalType": "address",
          "name": "registrant",
          "type": "address"
        },
        {
          "indexed": false,
          "internalType": "string",
          "name": "description",
          "type": "string"
        },
        {
          "indexed": false,
          "internalType": "string",
          "name": "location",
          "type": "string"
        },
        {
          "indexed": false,
          "internalType": "string",
          "name": "phone",
          "type": "string"
        },
        {
          "indexed": false,
          "internalType": "string",
          "name": "_address",
          "type": "string"
        },
        {
          "indexed": false,
          "internalType": "string",
          "name": "image_url",
          "type": "string"
        },
        {
          "indexed": true,
          "internalType": "string",
          "name": "documentHash",
          "type": "string"
        }
      ],
      "name": "Registered",
      "type": "event"
    },
    {
      "inputs": [
        {
          "internalType": "uint256",
          "name": "_itemId",
          "type": "uint256"
        }
      ],
      "name": "handleApprove",
      "outputs": [
        {
          "internalType": "uint256",
          "name": "",
          "type": "uint256"
        }
      ],
      "stateMutability": "nonpayable",
      "type": "function"
    },
    {
      "inputs": [],
      "name": "itemCount",
      "outputs": [
        {
          "internalType": "uint256",
          "name": "",
          "type": "uint256"
        }
      ],
      "stateMutability": "view",
      "type": "function"
    },
    {
      "inputs": [],
      "name": "owner",
      "outputs": [
        {
          "internalType": "address payable",
          "name": "",
          "type": "address"
        }
      ],
      "stateMutability": "view",
      "type": "function"
    },
    {
      "inputs": [
        {
          "internalType": "contract IERC721",
          "name": "_nft",
          "type": "address"
        },
        {
          "internalType": "string",
          "name": "name",
          "type": "string"
        },
        {
          "internalType": "uint256",
          "name": "_token_id",
          "type": "uint256"
        },
        {
          "internalType": "uint256",
          "name": "_price",
          "type": "uint256"
        },
        {
          "internalType": "string",
          "name": "description",
          "type": "string"
        },
        {
          "internalType": "string",
          "name": "location",
          "type": "string"
        },
        {
          "internalType": "string",
          "name": "phone",
          "type": "string"
        },
        {
          "internalType": "string",
          "name": "_address",
          "type": "string"
        },
        {
          "internalType": "string",
          "name": "image_url",
          "type": "string"
        },
        {
          "internalType": "string",
          "name": "documentHash",
          "type": "string"
        }
      ],
      "name": "registerItem",
      "outputs": [],
      "stateMutability": "nonpayable",
      "type": "function"
    },
    {
      "inputs": [
        {
          "internalType": "uint256",
          "name": "",
          "type": "uint256"
        }
      ],
      "name": "registeredItems",
      "outputs": [
        {
          "internalType": "uint256",
          "name": "itemId",
          "type": "uint256"
        },
        {
          "internalType": "contract IERC721",
          "name": "nft",
          "type": "address"
        },
        {
          "internalType": "string",
          "name": "name",
          "type": "string"
        },
        {
          "internalType": "uint256",
          "name": "_token_id",
          "type": "uint256"
        },
        {
          "internalType": "uint256",
          "name": "price",
          "type": "uint256"
        },
        {
          "internalType": "address payable",
          "name": "registrant",
          "type": "address"
        },
        {
          "internalType": "bool",
          "name": "sold",
          "type": "bool"
        },
        {
          "internalType": "string",
          "name": "description",
          "type": "string"
        },
        {
          "internalType": "string",
          "name": "location",
          "type": "string"
        },
        {
          "internalType": "string",
          "name": "phone_address",
          "type": "string"
        },
        {
          "internalType": "string",
          "name": "image_url",
          "type": "string"
        },
        {
          "internalType": "bool",
          "name": "approved",
          "type": "bool"
        }
      ],
      "stateMutability": "view",
      "type": "function"
    }
  ],
  "bytecode": "0x6080604052600160008190555033600160006101000a81548173ffffffffffffffffffffffffffffffffffffffff021916908373ffffffffffffffffffffffffffffffffffffffff1602179055506113b48061005c6000396000f3fe608060405234801561001057600080fd5b50600436106100575760003560e01c80631c7774971461005c57806348d9b4021461008c57806356617c9c146100c75780636bfb0d01146100e35780638da5cb5b14610101575b600080fd5b61007660048036038101906100719190610c23565b61011f565b6040516100839190610e77565b60405180910390f35b6100a660048036038101906100a19190610c23565b6101f5565b6040516100be9c9b9a99989796959493929190610e92565b60405180910390f35b6100e160048036038101906100dc9190610aa0565b610557565b005b6100eb61093f565b6040516100f89190610e77565b60405180910390f35b610109610945565b6040516101169190610dfc565b60405180910390f35b60008060036000848152602001908152602001600020905060008311801561014957506002548311155b610188576040517f08c379a000000000000000000000000000000000000000000000000000000000815260040161017f90610e37565b60405180910390fd5b6001151581600a0160009054906101000a900460ff16151514156101cd57600081600a0160006101000a81548160ff02191690831515021790555060009150506101f0565b600181600a0160006101000a81548160ff02191690831515021790555060019150505b919050565b60036020528060005260406000206000915090508060000154908060010160009054906101000a900473ffffffffffffffffffffffffffffffffffffffff16908060020180546102449061118b565b80601f01602080910402602001604051908101604052809291908181526020018280546102709061118b565b80156102bd5780601f10610292576101008083540402835291602001916102bd565b820191906000526020600020905b8154815290600101906020018083116102a057829003601f168201915b5050505050908060030154908060040154908060050160009054906101000a900473ffffffffffffffffffffffffffffffffffffffff16908060050160149054906101000a900460ff16908060060180546103179061118b565b80601f01602080910402602001604051908101604052809291908181526020018280546103439061118b565b80156103905780601f1061036557610100808354040283529160200191610390565b820191906000526020600020905b81548152906001019060200180831161037357829003601f168201915b5050505050908060070180546103a59061118b565b80601f01602080910402602001604051908101604052809291908181526020018280546103d19061118b565b801561041e5780601f106103f35761010080835404028352916020019161041e565b820191906000526020600020905b81548152906001019060200180831161040157829003601f168201915b5050505050908060080180546104339061118b565b80601f016020809104026020016040519081016040528092919081815260200182805461045f9061118b565b80156104ac5780601f10610481576101008083540402835291602001916104ac565b820191906000526020600020905b81548152906001019060200180831161048f57829003601f168201915b5050505050908060090180546104c19061118b565b80601f01602080910402602001604051908101604052809291908181526020018280546104ed9061118b565b801561053a5780601f1061050f5761010080835404028352916020019161053a565b820191906000526020600020905b81548152906001019060200180831161051d57829003601f168201915b50505050509080600a0160009054906101000a900460ff1690508c565b6002600054141561059d576040517f08c379a000000000000000000000000000000000000000000000000000000000815260040161059490610e57565b60405180910390fd5b6002600081905550600087116105e8576040517f08c379a00000000000000000000000000000000000000000000000000000000081526004016105df90610e17565b60405180910390fd5b600084846040516020016105fd929190610db2565b604051602081830303815290604052905060026000815480929190610621906111ee565b9190505550600160009054906101000a900473ffffffffffffffffffffffffffffffffffffffff1673ffffffffffffffffffffffffffffffffffffffff166108fc899081150290604051600060405180830381858888f193505050505060405180610180016040528060025481526020018c73ffffffffffffffffffffffffffffffffffffffff1681526020018b81526020018a81526020018981526020013373ffffffffffffffffffffffffffffffffffffffff168152602001600015158152602001888152602001878152602001828152602001848152602001600015158152506003600060025481526020019081526020016000206000820151816000015560208201518160010160006101000a81548173ffffffffffffffffffffffffffffffffffffffff021916908373ffffffffffffffffffffffffffffffffffffffff160217905550604082015181600201908051906020019061078692919061096b565b50606082015181600301556080820151816004015560a08201518160050160006101000a81548173ffffffffffffffffffffffffffffffffffffffff021916908373ffffffffffffffffffffffffffffffffffffffff16021790555060c08201518160050160146101000a81548160ff02191690831515021790555060e082015181600601908051906020019061081e92919061096b565b5061010082015181600701908051906020019061083c92919061096b565b5061012082015181600801908051906020019061085a92919061096b565b5061014082015181600901908051906020019061087892919061096b565b5061016082015181600a0160006101000a81548160ff021916908315150217905550905050816040516108ab9190610de5565b60405180910390203373ffffffffffffffffffffffffffffffffffffffff168c73ffffffffffffffffffffffffffffffffffffffff167ffd9ccfe3f4e24131f4830103b6d65da08b1e6a769dcc380661ae6c84a777dfe26002548e8e8e8e8e8e8e8e60405161092299989796959493929190610f6f565b60405180910390a450600160008190555050505050505050505050565b60025481565b600160009054906101000a900473ffffffffffffffffffffffffffffffffffffffff1681565b8280546109779061118b565b90600052602060002090601f01602090048101928261099957600085556109e0565b82601f106109b257805160ff19168380011785556109e0565b828001600101855582156109e0579182015b828111156109df5782518255916020019190600101906109c4565b5b5090506109ed91906109f1565b5090565b5b80821115610a0a5760008160009055506001016109f2565b5090565b6000610a21610a1c8461104b565b611026565b905082815260208101848484011115610a3957600080fd5b610a44848285611149565b509392505050565b600081359050610a5b81611350565b92915050565b600082601f830112610a7257600080fd5b8135610a82848260208601610a0e565b91505092915050565b600081359050610a9a81611367565b92915050565b6000806000806000806000806000806101408b8d031215610ac057600080fd5b6000610ace8d828e01610a4c565b9a505060208b013567ffffffffffffffff811115610aeb57600080fd5b610af78d828e01610a61565b9950506040610b088d828e01610a8b565b9850506060610b198d828e01610a8b565b97505060808b013567ffffffffffffffff811115610b3657600080fd5b610b428d828e01610a61565b96505060a08b013567ffffffffffffffff811115610b5f57600080fd5b610b6b8d828e01610a61565b95505060c08b013567ffffffffffffffff811115610b8857600080fd5b610b948d828e01610a61565b94505060e08b013567ffffffffffffffff811115610bb157600080fd5b610bbd8d828e01610a61565b9350506101008b013567ffffffffffffffff811115610bdb57600080fd5b610be78d828e01610a61565b9250506101208b013567ffffffffffffffff811115610c0557600080fd5b610c118d828e01610a61565b9150509295989b9194979a5092959850565b600060208284031215610c3557600080fd5b6000610c4384828501610a8b565b91505092915050565b610c55816110cb565b82525050565b610c64816110dd565b82525050565b6000610c758261107c565b610c7f8185611092565b9350610c8f818560208601611158565b80840191505092915050565b610ca481611125565b82525050565b6000610cb582611087565b610cbf818561109d565b9350610ccf818560208601611158565b610cd8816112c4565b840191505092915050565b6000610cee82611087565b610cf881856110ae565b9350610d08818560208601611158565b80840191505092915050565b7f5b2d2d5d00000000000000000000000000000000000000000000000000000000815250565b6000610d47601f8361109d565b9150610d52826112d5565b602082019050919050565b6000610d6a60128361109d565b9150610d75826112fe565b602082019050919050565b6000610d8d601f8361109d565b9150610d9882611327565b602082019050919050565b610dac8161111b565b82525050565b6000610dbe8285610c6a565b9150610dc982610d14565b600482019150610dd98284610c6a565b91508190509392505050565b6000610df18284610ce3565b915081905092915050565b6000602082019050610e116000830184610c4c565b92915050565b60006020820190508181036000830152610e3081610d3a565b9050919050565b60006020820190508181036000830152610e5081610d5d565b9050919050565b60006020820190508181036000830152610e7081610d80565b9050919050565b6000602082019050610e8c6000830184610da3565b92915050565b600061018082019050610ea8600083018f610da3565b610eb5602083018e610c9b565b8181036040830152610ec7818d610caa565b9050610ed6606083018c610da3565b610ee3608083018b610da3565b610ef060a083018a610c4c565b610efd60c0830189610c5b565b81810360e0830152610f0f8188610caa565b9050818103610100830152610f248187610caa565b9050818103610120830152610f398186610caa565b9050818103610140830152610f4e8185610caa565b9050610f5e610160830184610c5b565b9d9c50505050505050505050505050565b600061012082019050610f85600083018c610da3565b8181036020830152610f97818b610caa565b9050610fa6604083018a610da3565b610fb36060830189610da3565b8181036080830152610fc58188610caa565b905081810360a0830152610fd98187610caa565b905081810360c0830152610fed8186610caa565b905081810360e08301526110018185610caa565b90508181036101008301526110168184610caa565b90509a9950505050505050505050565b6000611030611041565b905061103c82826111bd565b919050565b6000604051905090565b600067ffffffffffffffff82111561106657611065611295565b5b61106f826112c4565b9050602081019050919050565b600081519050919050565b600081519050919050565b600081905092915050565b600082825260208201905092915050565b600081905092915050565b60006110c4826110fb565b9050919050565b60006110d6826110fb565b9050919050565b60008115159050919050565b60006110f4826110b9565b9050919050565b600073ffffffffffffffffffffffffffffffffffffffff82169050919050565b6000819050919050565b600061113082611137565b9050919050565b6000611142826110fb565b9050919050565b82818337600083830152505050565b60005b8381101561117657808201518184015260208101905061115b565b83811115611185576000848401525b50505050565b600060028204905060018216806111a357607f821691505b602082108114156111b7576111b6611266565b5b50919050565b6111c6826112c4565b810181811067ffffffffffffffff821117156111e5576111e4611295565b5b80604052505050565b60006111f98261111b565b91507fffffffffffffffffffffffffffffffffffffffffffffffffffffffffffffffff82141561122c5761122b611237565b5b600182019050919050565b7f4e487b7100000000000000000000000000000000000000000000000000000000600052601160045260246000fd5b7f4e487b7100000000000000000000000000000000000000000000000000000000600052602260045260246000fd5b7f4e487b7100000000000000000000000000000000000000000000000000000000600052604160045260246000fd5b6000601f19601f8301169050919050565b7f5072696365206d7573742062652067726561746572207468616e207a65726f00600082015250565b7f4974656d20646f65736e27742065786973740000000000000000000000000000600082015250565b7f5265656e7472616e637947756172643a207265656e7472616e742063616c6c00600082015250565b611359816110e9565b811461136457600080fd5b50565b6113708161111b565b811461137b57600080fd5b5056fea2646970667358221220f247c3eec4b8e736058c43809edf30b75dfc0ec5654215d4a87b95d28467f2cd64736f6c63430008040033",
  "linkReferences": {},
  "deployedLinkReferences": {}
}